:100000000C942A000C94000A0C94270A0C944E0AB3
:100010000C9447000C9447000C9447000C94470044
:100020000C9447000C9447000C9407090C9447006B
:100030000C9447000C9447000C9447000C94470024
:100040000C9447000C9447000C9447000C94470014
:100050000C94470011241FBECFE5D8E0DEBFCDBF12
:1000600011E0A0E6B0E0E4E9F2E302C005900D92F1
:10007000A837B107D9F711E0A8E7B1E001C01D9298
:10008000AD38B107E1F70E94B4170C9448190C94ED
:100090000000EF92FF920F931F937B018C0120E0F1
:1000A00030E040E05FE40E94C50388238CF0C80183
:1000B000B70120E030E040E05FE40E94C1010E940F
:1000C00053049B01AC01205030404040504806C0D2
:1000D000C801B7010E9453049B01AC01B901CA01D8
:1000E0001F910F91FF90EF900895A0E0B0E0EBE733
:1000F000F0E00C947B18DC012B01FA019C9192300A
:1001000008F439C1EB018881823008F433C194309E
:1001100069F4843009F02FC111969C91119789815F
:10012000981709F428C1A0E6B0E025C1843009F48D
:1001300021C18230A9F4923009F01DC19A01AD01AC
:1001400088E0EA010990AE01E90109929E0181501F
:10015000C1F7E201898111969C918923818308C1AD
:10016000923009F407C112962D903C901397EB0141
:100170008A819B811496AD90BD90CD90DC901797AD
:10018000EC80FD800E811F819101281B390BB90184
:1001900037FF04C066277727621B730B6032710537
:1001A0000CF061C0121613066CF537014801062EDB
:1001B00004C096948794779467940A94D2F721E0C8
:1001C00030E040E050E004C0220F331F441F551FB1
:1001D0006A95D2F721503040404050402E213F21B7
:1001E00040235123211531054105510521F021E01E
:1001F00030E040E050E079018A01E628F72808293C
:1002000019293CC0232BD1F1260E371E350146019A
:10021000062E04C096948794779467940A94D2F734
:1002200021E030E040E050E004C0220F331F441FC3
:10023000551F6A95D2F721503040404050402A2146
:100240003B214C215D21211531054105510521F04E
:1002500021E030E040E050E059016A01A628B728CB
:10026000C828D9280BC0821593052CF01C01AA249C
:10027000BB24650103C0EE24FF24870111969C91E5
:10028000D20111968C91981709F445C0992339F041
:10029000A80197012A193B094C095D0906C0A6016E
:1002A00095012E193F09400B510B57FD08C01182D3
:1002B0003382228224833583468357831DC081E0A5
:1002C00081833382228288279927DC01821B930B4A
:1002D000A40BB50B84839583A683B7830DC0220F2F
:1002E000331F441F551F24833583468357838281E0
:1002F000938101979383828324813581468157813D
:10030000DA01C9010197A109B1098F5F9F4FAF4F72
:10031000BF4328F30BC0918333822282EA0CFB1C7B
:100320000C1D1D1DE482F5820683178383E0808304
:10033000248135814681578157FF1AC0C901AA27F8
:1003400097FDA095BA2F81709070A070B0705695EF
:10035000479537952795822B932BA42BB52B848318
:100360009583A683B7838281938101969383828349
:10037000DF0101C0D201CD01CDB7DEB7E2E10C94BF
:100380009718A0E2B0E0E7ECF1E00C9487186983DD
:100390007A838B839C832D833E834F835887E9E048
:1003A000EE2EF12CEC0EFD1ECE010196B7010E943F
:1003B00044068E010F5E1F4FCE010596B8010E94C4
:1003C00044068A8991E089278A8BC701B801AE016A
:1003D000475E5F4F0E9475000E946F05A096E6E0A1
:1003E0000C94A318A0E2B0E0E8EFF1E00C948718B9
:1003F00069837A838B839C832D833E834F835887C5
:10040000F9E0EF2EF12CEC0EFD1ECE010196B701A6
:100410000E9444068E010F5E1F4FCE010596B80163
:100420000E944406C701B801AE01475E5F4F0E94BB
:1004300075000E946F05A096E6E00C94A318A0E258
:10044000B0E0E5E2F2E00C947B1869837A838B8359
:100450009C832D833E834F835887CE010196BE0136
:10046000675F7F4F0E944406CE010596BE016F5E16
:100470007F4F0E9444069985923088F089898230A6
:10048000C8F0943019F4823051F404C0843029F457
:10049000923081F480E690E0C6C0923049F420E0CA
:1004A0009A858A89981321E02A87CE010996BBC0D4
:1004B000823049F420E09A858A89981321E02A8BBA
:1004C000CE014196B0C02D843E844F8458886D88FB
:1004D0007E888F88988CEE24FF248701AA24BB2471
:1004E000650140E050E060E070E0E0E0F0E0C10174
:1004F00081709070892BE9F0E60CF71C081D191D1E
:100500009A01AB012A0D3B1D4C1D5D1D80E090E062
:10051000A0E0B0E0E614F7040805190520F481E036
:1005200090E0A0E0B0E0BA01A901480F591F6A1F8E
:100530007B1FAA0CBB1CCC1CDD1C97FE08C081E0F5
:1005400090E0A0E0B0E0A82AB92ACA2ADB2A3196B6
:10055000E032F10549F0660C771C881C991C569412
:10056000479437942794C3CFFA85EA892B893C892D
:100570008B859C85280F391F2E5F3F4F17C0CA01FE
:1005800081709070892B61F016950795F794E79428
:1005900080E090E0A0E0B0E8E82AF92A0A2B1B2BC3
:1005A00076956795579547952F5F3F4F77FDE7CF36
:1005B0000CC0440F551F661F771F17FD4160EE0CDE
:1005C000FF1C001F111F21503040403090E05907A0
:1005D00090E0690790E4790760F32B8F3C8FDB0193
:1005E000CA018F779070A070B07080349105A1051A
:1005F000B10561F447FD0AC0E114F10401051105DC
:1006000029F0405C5F4F6F4F7F4F40781A8EFE1786
:1006100011F081E08A8F4D8F5E8F6F8F78A383E01A
:10062000898FCE0149960E946F05A096E2E10C9455
:100630009718A8E1B0E0EFE1F3E00C948318698328
:100640007A838B839C832D833E834F835887B9E0C5
:10065000EB2EF12CEC0EFD1ECE010196B7010E948F
:1006600044068E010F5E1F4FCE010596B8010E9411
:1006700044062985223008F47EC03989323010F4CE
:10068000B8017CC08A859A8989278A87243011F02D
:10069000223031F4231709F06EC060E670E06EC0BE
:1006A000343039F41D861E861F86188A1C861B86E8
:1006B00004C0323021F484E08987B7015FC02B8504
:1006C0003C858B899C89281B390B3C872B87ED84C3
:1006D000FE840F851889AD88BE88CF88D88CEA142F
:1006E000FB040C051D0540F4EE0CFF1C001F111F40
:1006F000215030403C872B8720E030E040E050E044
:1007000080E090E0A0E0B0E460E070E0EA14FB0478
:100710000C051D0540F0282B392B4A2B5B2BEA18C2
:10072000FB080C091D09B695A79597958795EE0CC2
:10073000FF1C001F111F6F5F7F4F6F31710531F775
:10074000DA01C9018F779070A070B0708034910584
:10075000A105B10561F427FD0AC0E114F10401050A
:10076000110529F0205C3F4F4F4F5F4F20782D87B8
:100770003E874F87588BBE01675F7F4FCB010E943A
:100780006F056896EAE00C949F18A8E1B0E0EBECE6
:10079000F3E00C94871869837A838B839C832D8381
:1007A0003E834F83588789E0E82EF12CEC0EFD1E26
:1007B000CE010196B7010E9444068E010F5E1F4FC5
:1007C000CE010596B8010E9444068985823040F02A
:1007D0008989823028F0C701B8010E94BC0601C097
:1007E0008FEF6896E6E00C94A318A8E0B0E0EBEF7A
:1007F000F3E00C9484189B01AC0183E08983DA0157
:10080000C9018827B7FD83959927AA27BB27B82E4A
:10081000211531054105510519F482E089833AC05B
:100820008823A9F0203080E0380780E0480780E87E
:10083000580729F460E070E080E09FEC30C0EE24BF
:10084000FF248701E21AF30A040B150B02C0790199
:100850008A018EE1C82ED12CDC82CB82ED82FE8211
:100860000F831887C801B7010E9420050197181649
:10087000190684F4082E04C0EE0CFF1C001F111F83
:100880000A94D2F7ED82FE820F831887C81AD90A1C
:10089000DC82CB82BA82CE0101960E946F05289637
:1008A000E9E00C94A018ACE0B0E0E9E5F4E00C94C9
:1008B0008B1869837A838B839C83CE010196BE015A
:1008C0006B5F7F4F0E9444068D81823061F18230E0
:1008D00050F1843021F48E81882351F12EC02F8174
:1008E000388537FD20C06E812F3131051CF066231D
:1008F000F9F023C08EE190E0821B930B29853A85A5
:100900004B855C8504C056954795379527958A9504
:10091000D2F76623B1F050954095309521953F4F21
:100920004F4F5F4F0EC020E030E040E050E009C084
:100930002FEF3FEF4FEF5FE704C020E030E040E0F3
:1009400050E8B901CA012C96E2E00C94A718A8E07F
:10095000B0E0EDEAF4E00C9483187B018C016115A2
:1009600071058105910519F482E0898360C083E0F7
:1009700089838EE1C82ED12CDC82CB82ED82FE826F
:100980000F831887C801B7010E942005FC01319729
:10099000F7FF3BC0222733272E1B3F0B570168016F
:1009A000022E04C0D694C794B794A7940A94D2F7A1
:1009B00040E050E060E070E081E090E0A0E0B0E076
:1009C00004C0880F991FAA1FBB1F2A95D2F7019751
:1009D000A109B1098E219F21A023B1230097A10570
:1009E000B10521F041E050E060E070E04A295B2968
:1009F0006C297D294D835E836F8378878EE190E03B
:100A00008E1B9F0B9C838B8312C0309781F00E2E20
:100A100004C0EE0CFF1C001F111F0A94D2F7ED82D8
:100A2000FE820F831887CE1ADF0ADC82CB821A82FD
:100A3000CE0101960E946F052896EAE00C949F185B
:100A4000EF92FF920F931F937B018C0180E0E816D9
:100A500080E0F80681E0080780E0180788F48FEF4F
:100A6000E816F1040105110531F028F088E090E066
:100A7000A0E0B0E017C080E090E0A0E0B0E012C0DD
:100A800080E0E81680E0F80680E0080781E01807BB
:100A900028F088E190E0A0E0B0E004C080E190E0C0
:100AA000A0E0B0E020E230E040E050E0281B390B4D
:100AB0004A0B5B0B04C016950795F794E7948A954B
:100AC000D2F7F701E859FF4F8081281B310941090E
:100AD0005109C9011F910F91FF90EF900895DF9286
:100AE000EF92FF920F931F93FC01E480F580068143
:100AF0001781D1808081823048F480E090E0A0E1CD
:100B0000B0E0E82AF92A0A2B1B2BA5C0843009F48F
:100B10009FC0823021F4EE24FF24870105C0E11438
:100B2000F1040105110519F4E0E0F0E096C06281DE
:100B300073819FEF623879070CF05BC022E83FEFCA
:100B4000261B370B2A3131052CF020E030E040E045
:100B500050E02AC0B801A701022E04C0769567951F
:100B6000579547950A94D2F781E090E0A0E0B0E075
:100B700004C0880F991FAA1FBB1F2A95D2F701979F
:100B8000A109B1098E219F21A023B1230097A105BE
:100B9000B10521F081E090E0A0E0B0E09A01AB0166
:100BA000282B392B4A2B5B2BDA01C9018F779070E8
:100BB000A070B07080349105A105B10539F427FF0C
:100BC00009C0205C3F4F4F4F5F4F04C0215C3F4F37
:100BD0004F4F5F4FE0E0F0E02030A0E03A07A0E0A8
:100BE0004A07A0E45A0710F0E1E0F0E079018A0139
:100BF00027C06038710564F5FB01E158FF4FD8014B
:100C0000C7018F779070A070B07080349105A105F6
:100C1000B10539F4E7FE0DC080E490E0A0E0B0E05B
:100C200004C08FE390E0A0E0B0E0E80EF91E0A1FD8
:100C30001B1F17FF05C016950795F794E79431968B
:100C400087E016950795F794E7948A95D1F705C044
:100C5000EE24FF248701EFEFF0E06E2F6795662703
:100C60006795902F9F77D794DD24D7948E2F869504
:100C7000492F462B582F5D29B701CA011F910F91AB
:100C8000FF90EF90DF900895FC01DB0140815181DE
:100C90002281622F6F7770E0221F2227221F93810B
:100CA000892F880F822B282F30E0991F9927991FB1
:100CB00011969C93119721153105A9F54115510500
:100CC0006105710511F482E037C082E89FEF139649
:100CD0009C938E9312979A01AB0167E0220F331F0A
:100CE000441F551F6A95D1F783E08C930DC0220FE6
:100CF000331F441F551F12968D919C911397019796
:100D000013969C938E931297203080E0380780E0F2
:100D1000480780E4580758F314962D933D934D935C
:100D20005C93179708952F3F310579F441155105CC
:100D30006105710519F484E08C93089564FF03C084
:100D400081E08C9312C01C9210C02F573040139634
:100D50003C932E93129783E08C9387E0440F551FAA
:100D6000661F771F8A95D1F7706414964D935D9333
:100D70006D937C93179708951F93DC01FB019C9161
:100D8000923008F447C08081823008F443C0943028
:100D900051F411961C91843099F58181682F70E08F
:100DA000611B71093FC0843021F0923031F48230F0
:100DB000B9F18181882389F12DC011961C91119779
:100DC0008230F1F081811817D9F412962D913C915F
:100DD0001397828193818217930794F0281739071C
:100DE000BCF014968D919D910D90BC91A02D248105
:100DF000358146815781281739074A075B0718F460
:100E0000112341F00AC082179307A407B50740F4E5
:100E1000112319F061E070E005C06FEF7FEF02C0B1
:100E200060E070E0CB011F910895E1E4F0E0808183
:100E300088608083808181608083808182608083FC
:100E400080818460808308950895A8950895EAE2DA
:100E5000F0E080818B7F808386E880BD8081806127
:100E6000808380818860808308959B01AC01220F7C
:100E7000331F441F551F220F331F441F551F220FBE
:100E8000331F441F551F220F331F441F551F60E09F
:100E900074E284EF90E00E942A18215029B9089545
:100EA0008CB920E030E040E050E0EBE2F0E08081FF
:100EB00086FD0CC02F5F3F4F4F4F5F4F203281EABE
:100EC000380787E0480780E0580789F70895DC0174
:100ED00020E030E040E050E0EBE2F0E08081882369
:100EE00064F02F5F3F4F4F4F5F4F203281EA38074A
:100EF00087E0480780E0580789F78CB18C93089504
:100F00008CE080B9E6E5F0E080818460808308951C
:100F1000E6E5F0E080818068808380818062808364
:100F200080818823ECF7E1E2F0E08081887F8830DF
:100F3000E1F70895E6E5F0E08081806180838081BB
:100F4000806880830895E6E5F0E080818062808398
:100F500080818068808380818823ECF7E1E2F0E083
:100F60008081887F8031E1F70895880F83B9E6E5B5
:100F7000F0E080818068808380818823ECF7E1E263
:100F8000F0E08081887F8831E1F70895880F8160E3
:100F900083B9E6E5F0E080818F7D80838081806881
:100FA000808380818823ECF7E1E2F0E08081887F14
:100FB0008034E1F7089583B9E6E5F0E080818F7D24
:100FC000808380818068808380818823ECF7E1E2E0
:100FD000F0E08081887F8832E1F70895E6E5F0E06F
:100FE00080818F7D808380818F7E808380818064FB
:100FF000808380818068808383B180818823ECF73F
:10100000E1E2F0E08081887F8035E1F783B10895E7
:101010009B01AC0164E274EF80E090E00E942A182A
:1010200037BD26BD0895EF92FF920F931F937B016A
:101030008C0166B577B580E090E00E94A704A80116
:1010400097010E941F0220E030E048EC52E40E9429
:10105000190320E030E040E85FE30E94C1010E94F4
:1010600049007BBD6ABD1F910F91FF90EF900895DD
:10107000EEE4F0E080818E7F808380818D7F8083AD
:101080008081846080830895EEE4F0E080818E7F2B
:10109000808380818D7F808380818B7F8083089592
:1010A00083E065E041E00E947B0AAFE4B0E08C9110
:1010B0008E7F8C938C9182608C93EEE4F0E0808143
:1010C000886080838081806180838C9180688C932C
:1010D0008C918F7B8C930895E3E5F0E080818F7B8A
:1010E0008083808188608083E9E5F0E08081826090
:1010F000808308959F92AF92BF92CF92DF92EF923A
:10110000FF920F931F9328EE33E040E050E00E94DF
:10111000EC175B016C01689415F8D694C794B794EA
:10112000A7941694D1F7C601B5012FEF30E040E047
:1011300050E00E942A18611571058105910569F436
:1011400099249A940F2EFFEFEF2EF0E0FF2EF0E09F
:101150000F2FF0E01F2FF02D12C099249A949A942B
:10116000E92CFF2400E010E0C601B501A8019701B9
:101170000E942A18611571058105910581F7C60144
:10118000B501A80197010E942A1820937D01309390
:101190007E0140937F0150938001892D81508CBF47
:1011A0001F910F91FF90EF90DF90CF90BF90AF9085
:1011B0009F900895E3E5F0E08081816080838081E5
:1011C0008D7F80838081846080830895E3E5F0E0F3
:1011D00080818E7F808380818D7F808380818B7FE3
:1011E000808308959FEF899FC001112464E670E019
:1011F0000E9417186CBF08950E94DA0808950E9493
:10120000E608089590938C0180938B0108951F92B6
:101210000F920FB60F9211242F933F934F935F932A
:101220006F937F938F939F93AF93BF93EF93FF93AE
:101230008091810190918201A0918301B0918401FC
:101240000196A11DB11D8093810190938201A0930D
:101250008301B093840120917D0130917E01409102
:101260007F015091800182179307A407B50769F4A5
:10127000E0918B01F0918C010995109281011092FF
:1012800082011092830110928401FF91EF91BF912E
:10129000AF919F918F917F916F915F914F913F910E
:1012A0002F910F900FBE0F901F90189581E063E073
:1012B00041E00E947B0AE3E5F0E080818064808366
:1012C0008081877F808380818F7E80838081806220
:1012D000808308958FB9EEE2F0E080818823ECF7F7
:1012E0008FB108950F931F930DE210E0F8018081F4
:1012F0008F7E808381E064E040E00E947B0A81E091
:1013000065E040E00E947B0A81E066E041E00E94E7
:101310007B0A81E067E040E00E947B0AF80180815F
:10132000806280838081806480831F910F91089503
:1013300078940895F8940895382FEBE5F0E0208133
:1013400081E090E0032E02C0880F991F0A94E2F713
:10135000282B2083363029F0373061F0353059F5AD
:1013600015C0E5E5F0E080818C7F80838081862B4D
:1013700080830895E5E5F0E08081837F808390811C
:10138000862F880F880F892B80830895E4E5F0E08D
:1013900080818F7B80832081862F90E08170907088
:1013A0000024969587950794969587950794982F8E
:1013B000802D282B20830895EBE5F0E0908121E03B
:1013C00030E002C0220F331F8A95E2F720952923CF
:1013D00020830895663029F0673041F0653079F454
:1013E0000AC09093860180938501089590938801A7
:1013F00080938701089590938A01809389010895CD
:101400001F920F920FB60F9211242F933F934F9379
:101410005F936F937F938F939F93AF93BF93EF935C
:10142000FF93E0918501F09186010995FF91EF917D
:10143000BF91AF919F918F917F916F915F914F91EC
:101440003F912F910F900FBE0F901F9018951F92F4
:101450000F920FB60F9211242F933F934F935F93E8
:101460006F937F938F939F93AF93BF93EF93FF936C
:10147000E0918701F09188010995FF91EF91BF916B
:10148000AF919F918F917F916F915F914F913F911C
:101490002F910F900FBE0F901F9018951F920F92D3
:1014A0000FB60F9211242F933F934F935F936F9337
:1014B0007F938F939F93AF93BF93EF93FF93E091AD
:1014C0008901F0918A010995FF91EF91BF91AF9148
:1014D0009F918F917F916F915F914F913F912F914C
:1014E0000F900FBE0F901F9018958FEF8ABB87BB90
:1014F00084BB81BB0895813009F1813030F08230A6
:10150000B1F1833009F064C04BC0EAE3F0E0208120
:1015100081E090E0062E02C0880F991F0A94E2F73E
:101520008095822380832081842F90E002C0880FE1
:10153000991F6A95E2F7282B20830895E7E3F0E0EE
:10154000208181E090E0062E02C0880F991F0A9446
:10155000E2F78095822380832081842F90E002C06F
:10156000880F991F6A95E2F7282B20830895E4E3FA
:10157000F0E0208181E090E0062E02C0880F991FE4
:101580000A94E2F78095822380832081842F90E063
:1015900002C0880F991F6A95E2F7282B20830895CF
:1015A000E1E3F0E0208181E090E0062E02C0880FA8
:1015B000991F0A94E2F78095822380832081842FEB
:1015C00090E002C0880F991F6A95E2F7282B2083CC
:1015D0000895813009F1813030F08230B1F18330EB
:1015E00009F064C04BC0EBE3F0E0208181E090E0C3
:1015F000062E02C0880F991F0A94E2F78095822375
:1016000080832081842F90E002C0880F991F6A9503
:10161000E2F7282B20830895E8E3F0E0208181E0C1
:1016200090E0062E02C0880F991F0A94E2F7809579
:10163000822380832081842F90E002C0880F991F2D
:101640006A95E2F7282B20830895E5E3F0E02081F6
:1016500081E090E0062E02C0880F991F0A94E2F7FD
:101660008095822380832081842F90E002C0880FA0
:10167000991F6A95E2F7282B20830895E2E3F0E0B2
:10168000208181E090E0062E02C0880F991F0A9405
:10169000E2F78095822380832081842F90E002C02E
:1016A000880F991F6A95E2F7282B20830895FA0185
:1016B000813089F0813028F08230B9F0833041F5F3
:1016C0001EC089B390E002C0959587956A95E2F7B0
:1016D00081708083089586B390E002C095958795C8
:1016E0006A95E2F781708083089583B390E002C029
:1016F000959587956A95E2F781708083089580B308
:1017000090E002C0959587956A95E2F78170808395
:1017100008958130A1F0813028F08230E9F08330E3
:10172000A1F527C0EBE3F0E0208181E090E002C06A
:10173000880F991F6A95E2F7282720830895E8E328
:10174000F0E0208181E090E002C0880F991F6A9547
:10175000E2F7282720830895E5E3F0E0208181E087
:1017600090E002C0880F991F6A95E2F7282720832E
:101770000895E2E3F0E0208181E090E002C0880F6C
:10178000991F6A95E2F7282720830895E6E2F0E0A2
:101790009081987F90839081892B8083808180685D
:1017A00080838081877F808380818F7D8083E7E253
:1017B000F0E080818F7D808380818F738083808142
:1017C0006295660F660F607C682B60830895E7E280
:1017D000F0E09081907E90839081892B8083E6E277
:1017E000F0E0808180648083808184FFFDCF24B11C
:1017F00035B1822F932F089580E00E94E70BA0E07F
:10180000B0E0BC01CD0128E833E140E050E00E94A7
:10181000EC17052E5AE096958795779567955A951A
:10182000D1F7502D2AE030E040E050E00E942A1825
:10183000822F089580E060E040E00E947B0A0895D6
:10184000CF92DF92EF92FF920F931F93DF93CF938C
:1018500000D000D0CDB7DEB769837A838B839C83B9
:101860000E944900062F69817A818B819C8120E04A
:1018700030E040E251E40E941F0220E030E040E20C
:1018800051E40E94B918262F372F482F592FCA012B
:10189000B9010E944900162FCC24DD240F2EF0EA56
:1018A000EF2EFFE0FF2EF02D81E060E040E00E948F
:1018B000E90A143009F4B1C0153060F4113009F4AC
:1018C00040C01130D0F0123009F45FC0133009F07D
:1018D0007BC17FC0173009F40CC1183038F41530C3
:1018E00009F4BFC0163009F06FC1DFC0183009F429
:1018F00024C1193009F068C144C180E061E041E0D1
:101900000E94E90A80E062E041E00E94E90A80E08A
:1019100063E041E00E94E90A80E064E041E00E9467
:10192000E90A80E065E041E00E94E90A80E066E0C3
:1019300041E00E94E90A80E067E040E00E94E90A95
:1019400043C180E061E040E00E94E90A80E062E09B
:1019500041E00E94E90A80E063E041E00E94E90A78
:1019600080E064E040E00E94E90A80E065E040E059
:101970000E94E90A80E066E040E00E94E90A80E017
:1019800067E040E00E94E90A1FC180E061E041E0B9
:101990000E94E90A80E062E041E00E94E90A80E0FA
:1019A00063E040E00E94E90A80E064E041E00E94D8
:1019B000E90A80E065E041E00E94E90A80E066E033
:1019C00040E00E94E90A80E067E041E00E94E90A05
:1019D000FBC080E061E041E00E94E90A80E062E053
:1019E00041E00E94E90A80E063E041E00E94E90AE8
:1019F00080E064E041E00E94E90A80E065E040E0C8
:101A00000E94E90A80E066E040E00E94E90A80E086
:101A100067E041E00E94E90AD7C080E061E040E071
:101A20000E94E90A80E062E041E00E94E90A80E069
:101A300063E041E00E94E90A80E064E040E00E9447
:101A4000E90A80E065E040E00E94E90A80E066E0A3
:101A500041E00E94E90A80E067E041E00E94E90A73
:101A6000B3C080E061E041E00E94E90A80E062E00A
:101A700040E00E94E90A80E063E041E00E94E90A58
:101A800080E064E041E00E94E90A80E065E040E037
:101A90000E94E90A80E066E041E00E94E90A80E0F5
:101AA00067E041E00E94E90A8FC080E061E041E028
:101AB0000E94E90A80E062E040E00E94E90A80E0DA
:101AC00063E041E00E94E90A80E064E041E00E94B6
:101AD000E90A80E065E041E00E94E90A80E066E012
:101AE00041E00E94E90A80E067E041E00E94E90AE3
:101AF0006BC080E061E041E00E94E90A80E062E0C2
:101B000041E00E94E90A80E063E041E00E94E90AC6
:101B100080E064E040E00E94E90A80E065E040E0A7
:101B20000E94E90A80E066E040E00E94E90A80E065
:101B300067E040E00E94E90A47C080E061E041E0E0
:101B40000E94E90A80E062E041E00E94E90A80E048
:101B500063E041E00E94E90A80E064E041E00E9425
:101B6000E90A80E065E041E00E94E90A80E066E081
:101B700041E00E94E90A80E067E041E00E94E90A52
:101B800023C080E061E041E00E94E90A80E062E079
:101B900041E00E94E90A80E063E041E00E94E90A36
:101BA00080E064E041E00E94E90A80E065E040E016
:101BB0000E94E90A80E066E041E00E94E90A80E0D4
:101BC00067E041E00E94E90A82E066E041E00E94AD
:101BD000E90A82E067E040E00E94E90AC701019754
:101BE000F1F782E066E040E00E94E90A043009F47F
:101BF000B1C0053060F4013009F440C00130D0F0CC
:101C0000023009F45FC0033009F07BC17FC00730A8
:101C100009F40CC1083038F4053009F4BFC00630AF
:101C200009F06FC1DFC0083009F424C1093009F0A0
:101C300068C144C180E061E041E00E94E90A80E0BF
:101C400062E041E00E94E90A80E063E041E00E9436
:101C5000E90A80E064E041E00E94E90A80E065E092
:101C600041E00E94E90A80E066E041E00E94E90A62
:101C700080E067E040E00E94E90A43C180E061E063
:101C800040E00E94E90A80E062E041E00E94E90A47
:101C900080E063E041E00E94E90A80E064E040E027
:101CA0000E94E90A80E065E040E00E94E90A80E0E5
:101CB00066E040E00E94E90A80E067E040E00E94C0
:101CC000E90A1FC180E061E041E00E94E90A80E08A
:101CD00062E041E00E94E90A80E063E040E00E94A7
:101CE000E90A80E064E041E00E94E90A80E065E002
:101CF00041E00E94E90A80E066E040E00E94E90AD3
:101D000080E067E041E00E94E90AFBC080E061E01A
:101D100041E00E94E90A80E062E041E00E94E90AB5
:101D200080E063E041E00E94E90A80E064E041E095
:101D30000E94E90A80E065E040E00E94E90A80E054
:101D400066E040E00E94E90A80E067E041E00E942E
:101D5000E90AD7C080E061E040E00E94E90A80E043
:101D600062E041E00E94E90A80E063E041E00E9415
:101D7000E90A80E064E040E00E94E90A80E065E072
:101D800040E00E94E90A80E066E041E00E94E90A42
:101D900080E067E041E00E94E90AB3C080E061E0D2
:101DA00041E00E94E90A80E062E040E00E94E90A26
:101DB00080E063E041E00E94E90A80E064E041E005
:101DC0000E94E90A80E065E040E00E94E90A80E0C4
:101DD00066E041E00E94E90A80E067E041E00E949D
:101DE000E90A8FC080E061E041E00E94E90A80E0FA
:101DF00062E040E00E94E90A80E063E041E00E9486
:101E0000E90A80E064E041E00E94E90A80E065E0E0
:101E100041E00E94E90A80E066E041E00E94E90AB0
:101E200080E067E041E00E94E90A6BC080E061E089
:101E300041E00E94E90A80E062E041E00E94E90A94
:101E400080E063E041E00E94E90A80E064E040E075
:101E50000E94E90A80E065E040E00E94E90A80E033
:101E600066E040E00E94E90A80E067E040E00E940E
:101E7000E90A47C080E061E041E00E94E90A80E0B1
:101E800062E041E00E94E90A80E063E041E00E94F4
:101E9000E90A80E064E041E00E94E90A80E065E050
:101EA00041E00E94E90A80E066E041E00E94E90A20
:101EB00080E067E041E00E94E90A23C080E061E041
:101EC00041E00E94E90A80E062E041E00E94E90A04
:101ED00080E063E041E00E94E90A80E064E041E0E4
:101EE0000E94E90A80E065E040E00E94E90A80E0A3
:101EF00066E041E00E94E90A80E067E041E00E947C
:101F0000E90A81E060E041E00E94E90A82E066E0DF
:101F100040E00E94E90A82E067E041E00E94E90AAD
:101F2000C7010197F1F782E067E040E00E94E90A0B
:101F30000894C11CD11C84EFC81681E0D80609F0B2
:101F4000B3CC0F900F900F900F90CF91DF911F9116
:101F50000F91FF90EF90DF90CF900895EF92FF9256
:101F60000F931F93CF93DF93282F6AE00E940B18E3
:101F7000092F822F0E940B18182FC0E0D0E00F2EDF
:101F8000F0EAEF2EFFE0FF2EF02D043009F4B1C08F
:101F9000053060F4013009F440C00130D0F0023067
:101FA00009F45FC0033009F07BC17FC0073009F43A
:101FB0000CC1083038F4053009F4BFC0063009F010
:101FC0006FC1DFC0083009F424C1093009F068C1CD
:101FD00044C180E061E041E00E94E90A80E062E003
:101FE00041E00E94E90A80E063E041E00E94E90AE2
:101FF00080E064E041E00E94E90A80E065E041E0C1
:102000000E94E90A80E066E041E00E94E90A80E07F
:1020100067E040E00E94E90A43C180E061E040E0FF
:102020000E94E90A80E062E041E00E94E90A80E063
:1020300063E041E00E94E90A80E064E040E00E9441
:10204000E90A80E065E040E00E94E90A80E066E09D
:1020500040E00E94E90A80E067E040E00E94E90A6F
:102060001FC180E061E041E00E94E90A80E062E097
:1020700041E00E94E90A80E063E040E00E94E90A52
:1020800080E064E041E00E94E90A80E065E041E030
:102090000E94E90A80E066E040E00E94E90A80E0F0
:1020A00067E041E00E94E90AFBC080E061E041E0B6
:1020B0000E94E90A80E062E041E00E94E90A80E0D3
:1020C00063E041E00E94E90A80E064E041E00E94B0
:1020D000E90A80E065E040E00E94E90A80E066E00D
:1020E00040E00E94E90A80E067E041E00E94E90ADE
:1020F000D7C080E061E040E00E94E90A80E062E051
:1021000041E00E94E90A80E063E041E00E94E90AC0
:1021100080E064E040E00E94E90A80E065E040E0A1
:102120000E94E90A80E066E041E00E94E90A80E05E
:1021300067E041E00E94E90AB3C080E061E041E06D
:102140000E94E90A80E062E040E00E94E90A80E043
:1021500063E041E00E94E90A80E064E041E00E941F
:10216000E90A80E065E040E00E94E90A80E066E07C
:1021700041E00E94E90A80E067E041E00E94E90A4C
:102180008FC080E061E041E00E94E90A80E062E007
:1021900040E00E94E90A80E063E041E00E94E90A31
:1021A00080E064E041E00E94E90A80E065E041E00F
:1021B0000E94E90A80E066E041E00E94E90A80E0CE
:1021C00067E041E00E94E90A6BC080E061E041E025
:1021D0000E94E90A80E062E041E00E94E90A80E0B2
:1021E00063E041E00E94E90A80E064E040E00E9490
:1021F000E90A80E065E040E00E94E90A80E066E0EC
:1022000040E00E94E90A80E067E040E00E94E90ABD
:1022100047C080E061E041E00E94E90A80E062E0BE
:1022200041E00E94E90A80E063E041E00E94E90A9F
:1022300080E064E041E00E94E90A80E065E041E07E
:102240000E94E90A80E066E041E00E94E90A80E03D
:1022500067E041E00E94E90A23C080E061E041E0DC
:102260000E94E90A80E062E041E00E94E90A80E021
:1022700063E041E00E94E90A80E064E041E00E94FE
:10228000E90A80E065E040E00E94E90A80E066E05B
:1022900041E00E94E90A80E067E041E00E94E90A2B
:1022A00082E066E041E00E94E90A82E067E040E007
:1022B0000E94E90AC7010197F1F782E066E040E079
:1022C0000E94E90A143009F4B1C0153060F41130ED
:1022D00009F440C01130D0F0123009F45FC013305F
:1022E00009F07BC17FC0173009F40CC1183038F4F5
:1022F000153009F4BFC0163009F06FC1DFC01830C7
:1023000009F424C1193009F068C144C180E061E0DA
:1023100041E00E94E90A80E062E041E00E94E90AAF
:1023200080E063E041E00E94E90A80E064E041E08F
:102330000E94E90A80E065E041E00E94E90A80E04D
:1023400066E041E00E94E90A80E067E040E00E9428
:10235000E90A43C180E061E040E00E94E90A80E0D0
:1023600062E041E00E94E90A80E063E041E00E940F
:10237000E90A80E064E040E00E94E90A80E065E06C
:1023800040E00E94E90A80E066E040E00E94E90A3D
:1023900080E067E040E00E94E90A1FC180E061E060
:1023A00041E00E94E90A80E062E041E00E94E90A1F
:1023B00080E063E040E00E94E90A80E064E041E000
:1023C0000E94E90A80E065E041E00E94E90A80E0BD
:1023D00066E040E00E94E90A80E067E041E00E9498
:1023E000E90AFBC080E061E041E00E94E90A80E088
:1023F00062E041E00E94E90A80E063E041E00E947F
:10240000E90A80E064E041E00E94E90A80E065E0DA
:1024100040E00E94E90A80E066E040E00E94E90AAC
:1024200080E067E041E00E94E90AD7C080E061E017
:1024300040E00E94E90A80E062E041E00E94E90A8F
:1024400080E063E041E00E94E90A80E064E040E06F
:102450000E94E90A80E065E040E00E94E90A80E02D
:1024600066E041E00E94E90A80E067E041E00E9406
:10247000E90AB3C080E061E041E00E94E90A80E03F
:1024800062E040E00E94E90A80E063E041E00E94EF
:10249000E90A80E064E041E00E94E90A80E065E04A
:1024A00040E00E94E90A80E066E041E00E94E90A1B
:1024B00080E067E041E00E94E90A8FC080E061E0CF
:1024C00041E00E94E90A80E062E040E00E94E90AFF
:1024D00080E063E041E00E94E90A80E064E041E0DE
:1024E0000E94E90A80E065E041E00E94E90A80E09C
:1024F00066E041E00E94E90A80E067E041E00E9476
:10250000E90A6BC080E061E041E00E94E90A80E0F6
:1025100062E041E00E94E90A80E063E041E00E945D
:10252000E90A80E064E040E00E94E90A80E065E0BA
:1025300040E00E94E90A80E066E040E00E94E90A8B
:1025400080E067E040E00E94E90A47C080E061E087
:1025500041E00E94E90A80E062E041E00E94E90A6D
:1025600080E063E041E00E94E90A80E064E041E04D
:102570000E94E90A80E065E041E00E94E90A80E00B
:1025800066E041E00E94E90A80E067E041E00E94E5
:10259000E90A23C080E061E041E00E94E90A80E0AE
:1025A00062E041E00E94E90A80E063E041E00E94CD
:1025B000E90A80E064E041E00E94E90A80E065E029
:1025C00040E00E94E90A80E066E041E00E94E90AFA
:1025D00080E067E041E00E94E90A82E066E040E0D6
:1025E0000E94E90A82E067E041E00E94E90AC7012F
:1025F0000197F1F782E067E040E00E94E90A219646
:10260000CA3FD10509F0C1CCDF91CF911F910F9145
:10261000FF90EF90089580E061E041E00E947B0A26
:1026200080E062E041E00E947B0A80E063E041E0FC
:102630000E947B0A80E064E041E00E947B0A80E027
:1026400065E041E00E947B0A80E066E041E00E9494
:102650007B0A80E067E041E00E947B0A81E060E065
:1026600041E00E947B0A82E066E041E00E947B0A32
:1026700082E067E041E00E947B0A08950E944408DE
:1026800008950E943808089590E0AA2797FDA09524
:10269000BA2FBC01CD010E94F50320E030E040EAF2
:1026A00050E40E941F0220E030E044E353E40E9423
:1026B000190320E030E040EA50E40E94F2010E9459
:1026C000130808950E94500862E370E080E090E0F3
:1026D0000E9408080895EF92FF920F931F93DF93D3
:1026E000CF930F92CDB7DEB7E72EF82E992379F569
:1026F00081E08983872F6F2DAE014F5F5F4F0E946E
:10270000570B8981882309F050C020ED37E040E95C
:1027100051E0CA010197F1F721503040D1F78E2DD9
:102720006F2DAE014F5F5F4F0E94570B8981882349
:1027300009F03BC08E010F5F1F4F8E2D6F2DA8013A
:102740000E94570B89818823C1F319822EC09130D2
:1027500061F51982872F6F2DAE014F5F5F4F0E9489
:10276000570B8981813009F520ED37E040E951E0D0
:10277000CA010197F1F721503040D1F78E2D6F2D0E
:10278000AE014F5F5F4F0E94570B8981813069F422
:102790008E010F5F1F4F8E2D6F2DA8010E94570BCA
:1027A00089818130C1F381E0898389810F90CF9144
:1027B000DF911F910F91FF90EF900895682F872F61
:1027C00040E00E947B0A0895813051F0813018F07A
:1027D000823079F40AC082E060E00E94890B08959B
:1027E00082E061E00E94890B089582E062E00E942D
:1027F000890B0895813059F0813018F0823091F4BE
:102800000CC082E060E040E00E94E90A089582E0A6
:1028100061E040E00E94E90A089582E062E040E061
:102820000E94E90A0895813059F0813018F0823011
:1028300091F40CC082E060E041E00E94E90A089552
:1028400082E061E041E00E94E90A089582E062E0EE
:1028500041E00E94E90A0895813059F0813018F072
:10286000823091F40CC082E060E041E00E947B0A7B
:10287000089582E061E041E00E947B0A089582E0D1
:1028800062E041E00E947B0A08951F93182F81E0C7
:1028900062E040E00E94E90A81E063E040E00E94DB
:1028A000E90A412F441F4427441F80E067E00E944B
:1028B000E90A412F4295469546954370417080E064
:1028C00066E00E94E90A412F4295469547704170A3
:1028D00080E065E00E94E90A412F42954F70417007
:1028E00080E064E00E94E90A81E063E041E00E9448
:1028F000E90A80EA9FE00197F1F781E063E040E0B8
:102900000E94E90A2CE231E040E951E0CA01019756
:10291000F1F721503040D1F7412F46954695469525
:10292000417080E067E00E94E90A412F4695469594
:10293000417080E066E00E94E90A412F46954170AF
:1029400080E065E00E94E90A412F417080E064E088
:102950000E94E90A81E063E041E00E94E90A80EA1E
:102960009FE00197F1F781E063E040E00E94E90A0F
:102970002CE231E040E951E0CA010197F1F7215022
:102980003040D1F71F9108951F93182F81E061E027
:1029900040E00E94E90A812F0E9445141F9108958A
:1029A00081E00E94C4140895DF93CF9300D0CDB787
:1029B000DEB7982F823068F4603158F480E889835C
:1029C00080EC8A83FE01E90FF11D8181860F0E9450
:1029D000C4140F900F90CF91DF9108951F93182F7B
:1029E00081E061E041E00E94E90A812F0E944514E4
:1029F0001F9108950E94EE1408950F931F93CF9393
:102A0000DF938C01862F880F880F880F805C0E94CF
:102A1000C414C0E0D0E0F801EC0FFD1F80810E94DB
:102A2000EE142196C830D105B1F780E80E94C41495
:102A3000DF91CF911F910F9108956F927F928F92A6
:102A40009F92AF92BF92CF92DF92EF92FF920F933D
:102A50001F93DF93CF93CDB7DEB72A970FB6F894C5
:102A6000DEBF0FBECDBF6B017C0161157105810515
:102A7000910521F480E30E94EE1463C0FE013196BB
:102A80008AE0DF011D928A95E9F7FF2044F088244F
:102A9000992454013E010894611C711C14C08DE2FC
:102AA0000E94EE14F094E094D094C094C11CD11C08
:102AB000E11CF11CC114D104E104F10441F78824A4
:102AC0009924540125C08301080D191DC701B601C1
:102AD0002AE030E040E050E00E944C18F8016083AA
:102AE000C701B6012AE030E040E050E00E944C18F7
:102AF000822F932FA42FB52F6C017D010894811C88
:102B0000911CA11CB11CC114D104E104F104D9F63B
:102B1000850174010894E108F108010911096E01A9
:102B20000894C11CD11CF601EE0DFF1D8081805D53
:102B30000E94EE140894E108F1080109110911231B
:102B400094F72A960FB6F894DEBF0FBECDBFCF9193
:102B5000DF911F910F91FF90EF90DF90CF90BF908A
:102B6000AF909F908F907F906F900895CF93DF9359
:102B7000FC018081882339F0EF010E94EE148981E5
:102B800021968823D1F7DF91CF91089581E061E00C
:102B900041E00E947B0A81E062E041E00E947B0A02
:102BA00081E063E041E00E947B0A80E064E041E074
:102BB0000E947B0A80E065E041E00E947B0A80E0A1
:102BC00066E041E00E947B0A80E067E041E00E940D
:102BD0007B0A81E061E040E00E94E90A81E062E076
:102BE00040E00E94E90A81E063E040E00E94E90AD7
:102BF00080E067E040E00E94E90A80E066E040E0B3
:102C00000E94E90A80E065E041E00E94E90A80E074
:102C100064E040E00E94E90A81E063E041E00E9454
:102C2000E90A80EA9FE00197F1F781E063E040E084
:102C30000E94E90A2CE231E040E951E0CA01019723
:102C4000F1F721503040D1F781E061E040E00E948F
:102C5000E90A88E20E94451481E061E040E00E94B8
:102C6000E90A8EE00E94451481E061E040E00E94A4
:102C7000E90A81E00E94451481E061E040E00E94A1
:102C8000E90A86E00E94451408952F923F924F92E0
:102C90005F926F927F928F929F92AF92BF92CF92EC
:102CA000DF92EF92FF920F931F93DF93CF93CDB7F5
:102CB000DEB764970FB6F894DEBF0FBECDBFDE015E
:102CC0001296E8E6F1E080E101900D928150E1F783
:102CD0008FEF8A8B6624772422243324689421F88A
:102CE0002C0E3D1E00E911E0CE010196C82ED92E12
:102CF00080ED97E08B8B9C8B4424689442F8460CC3
:102D000081E0642D40E00E94E90AC301880F991F09
:102D1000880F991F4101880E991EBB246894B1F851
:102D200083E06B2D4C2D5D2D0E94570B89818823EC
:102D3000E1F48B899C89F8013197F1F70197D9F774
:102D400083E06B2D4C2D5D2D0E94570B89818823CC
:102D500061F483E06B2D4C2D5D2D0E94570B898112
:102D60008823B9F3F401F081FA8BB3940894811CA1
:102D7000911C86E0B816A1F681E0642D41E00E9426
:102D8000E90A0894611C711CE4E06E16710409F0F4
:102D9000B3CF8A8964960FB6F894DEBF0FBECDBF5D
:102DA000CF91DF911F910F91FF90EF90DF90CF9027
:102DB000BF90AF909F908F907F906F905F904F905B
:102DC0003F902F90089583E062E040E00E947B0AEC
:102DD00083E063E040E00E947B0A83E064E040E03F
:102DE0000E947B0A83E065E040E00E947B0A81E06C
:102DF00064E041E00E947B0A81E065E041E00E94DE
:102E00007B0A81E066E041E00E947B0A81E067E0A6
:102E100041E00E947B0A81E064E041E00E94E90A0F
:102E200081E065E041E00E94E90A81E066E041E07E
:102E30000E94E90A81E067E041E00E94E90A089502
:102E40000F931F93182F062F0E9488071065812F5C
:102E50000E94B507802F0E94DB070E94A307812FE5
:102E60000E94C6070E94EE07182F0E949A07812F22
:102E70001F910F910895FF920F931F93182F062F04
:102E8000F42E0E948807812F80650E94B507802F4D
:102E90000E94DB078F2D0E94DB070E949A071F917B
:102EA0000F91FF9008950E948007089582E065E0E9
:102EB00041E00E94E90A24EF31E040E951E0CA0113
:102EC0000197F1F721503040D1F782E065E040E012
:102ED0000E94E90A24EF31E040E951E0CA0101977C
:102EE000F1F721503040D1F782E065E041E00E94E7
:102EF000E90A24EF31E040E951E0CA010197F1F716
:102F000021503040D1F782E065E040E00E94E90ABC
:102F1000089582E065E041E00E94E90A24EF31E093
:102F200040E951E0CA010197F1F721503040D1F753
:102F300082E065E040E00E94E90A089582E065E0F1
:102F400040E00E94E90A089582E065E041E00E94C5
:102F5000E90A089582E065E041E00E947B0A089555
:102F600082E00E94E4130895EF92FF921F93CF93A3
:102F7000DF9380E197E220E931E0F9013197F1F741
:102F80000197D9F782E00E942C140E9453170E94E7
:102F9000C61581E06CE00E942017182F0F2EF0E17B
:102FA000EF2EF7E2FF2EF02DC0E9D1E0612F70E0A7
:102FB00080E090E00E941D159701CE010197F1F786
:102FC00021503040D1F71F5F0E94D01481E06CE0A7
:102FD000412F0E943B17EACF629FD001739FF001FF
:102FE000829FE00DF11D649FE00DF11D929FF00D99
:102FF000839FF00D749FF00D659FF00D9927729FD0
:10300000B00DE11DF91F639FB00DE11DF91FBD015A
:10301000CF0111240895991B79E004C0991F9617D8
:1030200008F0961B881F7A95C9F78095089597FB3D
:10303000092E07260AD077FD04D049D006D00020FB
:103040001AF4709561957F4F0895F6F790958195E4
:103050009F4F0895A1E21A2EAA1BBB1BFD010DC0B4
:10306000AA1FBB1FEE1FFF1FA217B307E407F50738
:1030700020F0A21BB30BE40BF50B661F771F881F14
:10308000991F1A9469F760957095809590959B01AA
:10309000AC01BD01CF01089597FB092E05260ED086
:1030A00057FD04D0D7DF0AD0001C38F45095409566
:1030B000309521953F4F4F4F5F4F0895F6F790950C
:1030C0008095709561957F4F8F4F9F4F0895AA1BF4
:1030D000BB1B51E107C0AA1FBB1FA617B70710F003
:1030E000A61BB70B881F991F5A95A9F78095909535
:1030F000BC01CD0108952F923F924F925F926F9243
:103100007F928F929F92AF92BF92CF92DF92EF9277
:10311000FF920F931F93CF93DF93CDB7DEB7CA1BF8
:10312000DB0B0FB6F894DEBF0FBECDBF09942A8823
:10313000398848885F846E847D848C849B84AA84CB
:10314000B984C884DF80EE80FD800C811B81AA8158
:10315000B981CE0FD11D0FB6F894DEBF0FBECDBF23
:10316000ED0108955ED018F011F062D038F456C029
:1031700089C0E92F64D0B0F35523C9F3E7FB621788
:10318000730784079507A8F199F3E92FFF27882390
:103190002AF03197660F771F881FDAF7952F55278A
:1031A000442332F091505040220F331F441FD2F776
:1031B000BB27E91BF50B621B730B840BB109C1F232
:1031C00022F4620F731F841FB11D31972AF0660F1E
:1031D000771F881FBB1FEFCF915050405AF041F02E
:1031E000882332F0660F771F881F91505040C1F737
:1031F000939506C08695779567959F5FD9F7F8CF29
:103200009F3F31F0915020F4879577956795B7955A
:10321000880F911D9695879597F908959FEF80ECFB
:10322000089500240A94161617061806090608952C
:1032300000240A941216130614060506089557FD75
:103240009058440F551F59F05F3F71F04795880F14
:1032500097FB991F61F09F3F79F0879508951216AB
:1032600013061406551FF2CF4695F1DF08C0161657
:1032700017061806991FF1CF869571056105089408
:103280000895E894BB2766277727CB0197F908951F
:04329000F894FFCFE0
:103294000000000000000000000102020303030319
:1032A40004040404040404040505050505050505D2
:1032B40005050505050505050606060606060606B2
:1032C400060606060606060606060606060606069A
:1032D4000606060606060606070707070707070782
:1032E400070707070707070707070707070707076A
:1032F400070707070707070707070707070707075A
:103304000707070707070707070707070707070749
:103314000707070707070707080808080808080831
:103324000808080808080808080808080808080819
:103334000808080808080808080808080808080809
:1033440008080808080808080808080808080808F9
:1033540008080808080808080808080808080808E9
:1033640008080808080808080808080808080808D9
:1033740008080808080808080808080808080808C9
:1033840008080808080808080808080808080808B9
:1033940008080808080808080102030405060708C5
:0833A400090A0B0C0D0E0F10BD
:00000001FF
